:100000000C942A000C9449000C9472000C949B00F0
:100010000C9447000C9447000C9447000C94470044
:100020000C9447000C9447000C9447000C94470034
:100030000C9447000C9447000C9447000C94470024
:100040000C9447000C9447000C9447000C94470014
:100050000C94470011241FBECFE5D8E0DEBFCDBF12
:1000600010E0A0E6B0E0EEECF4E002C005900D92E6
:10007000A839B107D9F720E0A8E9B0E001C01D9286
:10008000AF39B207E1F70E9456010C9465020C9457
:1000900000001F920F920FB60F9211242F933F93DF
:1000A0004F935F936F937F938F939F93AF93BF9380
:1000B000EF93FF93E0919C00F0919D00309709F041
:1000C0000995FF91EF91BF91AF919F918F917F9192
:1000D0006F915F914F913F912F910F900FBE0F90B5
:1000E0001F9018951F920F920FB60F9211242F9305
:1000F0003F934F935F936F937F938F939F93AF93B0
:10010000BF93EF93FF93E0919A00F0919B0030979B
:1001100009F00995FF91EF91BF91AF919F918F9158
:100120007F916F915F914F913F912F910F900FBEF3
:100130000F901F9018951F920F920FB60F921124D7
:100140002F933F934F935F936F937F938F939F93DF
:10015000AF93BF93EF93FF93E0919800F0919900D4
:10016000309709F00995FF91EF91BF91AF919F9161
:100170008F917F916F915F914F913F912F910F9050
:100180000FBE0F901F901895CF93C82F60E088E0A6
:100190000E9404026C2F82E00E943F0261E089E02D
:1001A0000E9404028FEC97E00197F1F700C0000075
:1001B00060E089E00E9404028FEC97E00197F1F77C
:1001C00000C00000CF9108952FE788E391E021500F
:1001D00080409040E1F700C0000088E30E94C40026
:1001E0002FE788E391E0215080409040E1F700C084
:1001F000000088E30E94C4002FE788E391E02150CB
:1002000080409040E1F700C0000081E00E94C400FF
:100210002FE788E391E0215080409040E1F700C053
:10022000000082E00E94C4002FE788E391E02150A3
:1002300080409040E1F700C000000895CF93C82FA0
:1002400061E088E00E9404026C2F82E00E943F027D
:1002500061E089E00E9404028FEC97E00197F1F7DA
:1002600000C0000060E089E00E9404028FEC97E08B
:100270000197F1F700C000008FEC97E00197F1F7CC
:1002800000C00000CF910895882319F0813019F043
:10029000089580E801C080EC860F0E94C4008FECB6
:1002A00097E00197F1F700C0000008950E946B01EC
:1002B0000E94E40060E080E00E94440181E60E9428
:1002C0001E0181E60E941E0180919E008130C9F7C7
:1002D00010929E00F6CF0F931F93CF93DF93CDB76D
:1002E000DEB760970FB6F894DEBF0FBECDBF68E7EC
:1002F00070E080E041E050E0FB019191BF0128E017
:10030000E0E6F0E0DE01199601900D922A95E1F702
:1003100028E0E8E6F0E0DE01119601900D922A95C2
:10032000E1F7913009F442C018F1923009F05DC054
:10033000FE013196982F969596959695E90FF11DA9
:10034000E90FF11DA085B1859C91282F27708A01A6
:1003500002C0000F111F2A95E2F79801302F309547
:1003600093239C930190F081E02D9081292B3CC038
:10037000FE013196982F969596959695E90FF11D69
:10038000E90FF11DA085B1859C91282F27708A0166
:1003900002C0000F111F2A95E2F79801902B9C9341
:1003A0000190F081E02D908120951DC0FE013196D5
:1003B000982F969596959695E90FF11DE90FF11DE9
:1003C000A085B1859C91282F27708A0102C0000F5B
:1003D000111F2A95E2F79801209592239C93019092
:1003E000F081E02D9081292320838F5F803209F0F6
:1003F00083CF60960FB6F894DEBF0FBECDBFDF91FE
:10040000CF911F910F910895CF93DF93CDB7DEB7B2
:1004100028970FB6F894DEBF0FBECDBF98E0E8E690
:10042000F0E0DE01119601900D929A95E1F7982F78
:10043000969596959695FE013196E90FF11DE90F77
:10044000F11D0190F081E02D2081877041E050E0A6
:10045000082E01C0440F0A94EAF7942F9095922336
:1004600001C0660F8A95EAF7692B608328960FB65C
:10047000F894DEBF0FBECDBFDF91CF910895CF932B
:10048000DF93CDB7DEB728970FB6F894DEBF0FBE67
:10049000CDBF98E0E8E6F0E0DE01119601900D9204
:1004A0009A95E1F7FE013196E80FF11DE80FF11D75
:1004B0000190F081E02D608328960FB6F894DEBF9E
:0E04C0000FBECDBFDF91CF910895F894FFCF0E
:1004CE003A003700340031003B003800350032006E
:1004DE00390036003300300000000000000000003C
:1004EE0000000000020000000000000000000000FC
:0804FE000000020000000000F4
:00000001FF
