S010000041746D65676133322E7372656360
S11300000C9439000C94AF030C94D8030C940104A1
S11300100C9486030C945D030C9434030C94E20258
S11300200C940B030C94B9020C9490020C94670288
S11300300C9456000C9456000C9456000C945600E4
S11300400C9456000C9456000C9456000C945600D4
S11300500C9456008E009B00A800B500C200CF008F
S1130060DC00E900F600030110011D012A0137013B
S1130070440111241FBECFE5D8E0DEBFCDBF11E09F
S1130080A0E6B0E0EEEAF6E102C005900D92AA3CCB
S1130090B107D9F721E0AAECB1E001C01D92A93E55
S11300A0B207E1F70E9473090C94550B0C940000FD
S11300B0813049F120F0823009F4F3C008956130B1
S11300C069F028F0643089F06530B1F0089583B7A1
S11300D08F7B83BF83B7877F83BF089583B7806493
S11300E083BF83B7877F83BF089583B78F7B83BF25
S11300F083B7886083BF089583B7806483BF83B761
S1130100886083BF0895862F90E08F30910508F0B2
S1130110EBC0FC01E65DFF4F0C94400B8FB58E7F66
S11301208FBD8FB58D7F8FBD8EB5877F8EBD8EB50C
S11301308F7E8EBD08958FB581608FBD8FB58D7F05
S11301408FBD8EB5877F8EBD8EB58F7E8EBD089593
S11301508FB58E7F8FBD8FB582608FBD8EB5877F43
S11301608EBD8EB58F7E8EBD08958FB581608FBD97
S11301708FB582608FBD8EB5877F8EBD8EB58F7E25
S11301808EBD08958FB58E7F8FBD8FB58D7F8FBD4A
S11301908EB588608EBD8EB58F7E8EBD08958FB569
S11301A081608FBD8FB58D7F8FBD8EB588608EBD0C
S11301B08EB58F7E8EBD08958FB58E7F8FBD8FB522
S11301C082608FBD8EB588608EBD8EB58F7E8EBDEC
S11301D008958FB581608FBD8FB582608FBD8EB558
S11301E088608EBD8EB58F7E8EBD08958FB58E7F4F
S11301F08FBD8FB58D7F8FBD8EB5877F8EBD8EB53C
S113020080618EBD08958FB581608FBD8FB58D7F60
S11302108FBD8EB5877F8EBD8EB580618EBD0895EE
S11302208FB58E7F8FBD8FB582608FBD8EB5877F72
S11302308EBD8EB580618EBD08958FB581608FBDF2
S11302408FB582608FBD8EB5877F8EBD8EB5806180
S11302508EBD08958FB58E7F8FBD8FB58D7F8FBD79
S11302608EB588608EBD8EB580618EBD08958FB5C4
S11302708E7F8FBD8FB582608FBD8EB588608EBD39
S11302808EB580618EBD08958FB581608FBD8FB5A9
S113029082608FBD8EB588608EBD8EB580618EBD47
S11302A00895613069F028F0643089F06530B1F068
S11302B0089585B58F7B85BD85B5877F85BD0895F8
S11302C085B5806485BD85B5877F85BD089585B571
S11302D08F7B85BD85B5886085BD089585B58064AF
S11302E085BD85B5886085BD0895813041F0B0F045
S11302F0823051F0833069F080E090E013C0EFE485
S1130300F0E087E096E00EC0EFE4F0E085E094E0F2
S113031009C0E5E4F0E085E094E004C0E3E5F0E042
S113032085E094E06130F1F030F0623081F16330C7
S113033009F443C00895408121E030E0B90102C0CE
S1130340660F771F9A95E2F7962F909594239083E2
S1130350908102C0220F331F8A95E2F7209529234A
S113036020830895608121E030E0A90102C0440F98
S1130370551F9A95E2F7462B4083908102C0220FC5
S1130380331F8A95E2F7209529232083089540811D
S113039021E030E0B90102C0660F771F9A95E2F7B9
S11303A0962F909594239083908102C0220F331F3F
S11303B08A95E2F7292B20830895608121E030E0BB
S11303C0A90102C0440F551F9A95E2F7462B4083BA
S11303D0908102C0220F331F8A95E2F7292B2083D4
S11303E00895813021F048F0823021F008C0EEE415
S11303F0F0E005C0E5E4F0E002C0E3E5F0E0808170
S1130400887F6770682B608308951F93CF93DF9371
S1130410162FD42FC22F682F81E00E945800612F1D
S113042081E00E9475016D2F82E00E947501C093E6
S113043061006C2F81E00E94F101DF91CF911F9147
S113044008958130A1F018F0823009F108956130E7
S113045041F483B7909162009770887F892B83BFA2
S11304600895611123C083B7887F83BF08956130E5
S113047041F48EB5909161009770887F892B8EBD71
S11304800895611113C08EB5887F8EBD08956130C3
S113049041F485B5909160009770887F892B85BD64
S11304A00895611103C085B5887F85BD089529B776
S11304B090E0880F991F880F991F922F9B7F892B9B
S11304C089BF08959093D5018093D40108951F9214
S11304D00F920FB60F9211242F933F934F935F9374
S11304E06F937F938F939F93AF93BF93EF93FF93F8
S11304F0E091D801F091D901309709F00995FF9165
S1130500EF91BF91AF919F918F917F916F915F9187
S11305104F913F912F910F900FBE0F901F90189500
S11305201F920F920FB60F9211242F933F934F9364
S11305305F936F937F938F939F93AF93BF93EF9347
S1130540FF93E091D601F091D701309709F0099516
S1130550FF91EF91BF91AF919F918F917F916F9197
S11305605F914F913F912F910F900FBE0F901F906D
S113057018951F920F920FB60F9211242F933F9349
S11305804F935F936F937F938F939F93AF93BF9397
S1130590EF93FF93E091D401F091D501309709F0E6
S11305A00995FF91EF91BF91AF919F918F917F91A9
S11305B06F915F914F913F912F910F900FBE0F90CC
S11305C01F9018951F920F920FB60F9211242F931C
S11305D03F934F935F936F937F938F939F93AF93C7
S11305E0BF93EF93FF93E091D201F091D301309741
S11305F009F00995FF91EF91BF91AF919F918F9170
S11306007F916F915F914F913F912F910F900FBE0A
S11306100F901F9018951F920F920FB60F921124EE
S11306202F933F934F935F936F937F938F939F93F6
S1130630AF93BF93EF93FF93E091D001F091D10179
S1130640309709F00995FF91EF91BF91AF919F9178
S11306508F917F916F915F914F913F912F910F9067
S11306600FBE0F901F9018951F920F920FB60F9206
S113067011242F933F934F935F936F937F938F93A3
S11306809F93AF93BF93EF93FF93E091CE01F091CB
S1130690CF01309709F00995FF91EF91BF91AF9188
S11306A09F918F917F916F915F914F913F912F9186
S11306B00F900FBE0F901F9018951F920F920FB6B8
S11306C00F9211242F933F934F935F936F937F93D4
S11306D08F939F93AF93BF93EF93FF93E091CC01DC
S11306E0F091CD01309709F00995FF91EF91BF91F9
S11306F0AF919F918F917F916F915F914F913F91B6
S11307002F910F900FBE0F901F9018951F920F926C
S11307100FB60F9211242F933F934F935F936F93D0
S11307207F938F939F93AF93BF93EF93FF93E09146
S1130730CA01F091CB01309709F00995FF91EF912F
S1130740BF91AF919F918F917F916F915F914F91E5
S11307503F912F910F900FBE0F901F9018951F92ED
S11307600F920FB60F9211242F933F934F935F93E1
S11307706F937F938F939F93AF93BF93EF93FF9365
S1130780E091DE01F091DF01309709F00995FF91C6
S1130790EF91BF91AF919F918F917F916F915F91F5
S11307A04F913F912F910F900FBE0F901F9018956E
S11307B01F920F920FB60F9211242F933F934F93D2
S11307C05F936F937F938F939F93AF93BF93EF93B5
S11307D0FF93E091DC01F091DD01309709F0099578
S11307E0FF91EF91BF91AF919F918F917F916F9105
S11307F05F914F913F912F910F900FBE0F901F90DB
S113080018951F920F920FB60F9211242F933F93B6
S11308104F935F936F937F938F939F93AF93BF9304
S1130820EF93FF93E091DA01F091DB01309709F047
S11308300995FF91EF91BF91AF919F918F917F9116
S11308406F915F914F913F912F910F900FBE0F9039
S11308501F9018959F92AF92BF92CF92DF92EF9222
S1130860FF920F931F93CF93DF937C01C0E009C0E5
S1130870EC2FF0E0E057FF4F61E080810E94000B15
S1130880CF5FC430A8F3D0E0D12CBB24B39437C0DD
S11308900D2F10E0F801E057FF4FC08060E08C2D71
S11308A00E94000BC0E022C08C2F90E0F801EE0FF4
S11308B0FF1FEE0FFF1FE856FF4FE80FF91F908050
S11308C0992099F0FC01E057FF4FA4808A2D0E94E3
S11308D0C90A81110AC0F70190828A2D0E94C90AAF
S11308E08823D9F3DD24D394B12CCF5FC43010F422
S11308F0DD20D1F261E08C2D0E94000BDF5FD4304B
S113090038F28B2DDF91CF911F910F91FF90EF90D3
S1130910DF90CF90BF90AF909F900895CF932DE03C
S1130920829FC0011124FC01E855FF4FC48161E09E
S11309308C2F0E94000B82E08A95F1F700C060E0E2
S11309408C2F0E94000B22E02A95F1F700C0CF9172
S11309500895CF92DF92FF920F931F93CF93DF936B
S1130960F82E062FC82FD0E02DE02C9FC0012D9F1C
S1130970900D11249C0128553F4F690160E0F90155
S113098083810E94000BF6018081803101F518C03B
S1130990602F70E0012E02C0759567950A94E2F706
S11309A08DE08C9FF0018D9FF00D1124E855FF4FD1
S11309B0E10FF11D617085810E94000B1F5F01C072
S11309C010E0183028F38F2D0E948E0444C0882331
S11309D0F1F041C0812F90E09C012C5F3F4F602FCC
S11309E070E002C0759567952A95E2F74DE04C9F3B
S11309F090014D9F300D112428553F4FF901E80F08
S1130A00F91F617085810E94000B1F5F01C010E017
S1130A10143000F38F2D0E948E0410E017C0602F55
S1130A2070E0012E02C0759567950A94E2F78DE097
S1130A308C9FF0018D9FF00D1124E855FF4FE10FBD
S1130A40F11D617085810E94000B1F5F143038F323
S1130A508F2D0E948E04DF91CF911F910F91FF90F3
S1130A60DF90CF900895CF92DF92FF920F931F9360
S1130A70CF93DF93F82E062FC82FD0E02DE02C9FC4
S1130A80C0012D9F900D11249C0128553F4F6901F1
S1130A9061E0F90183810E94000BF60180818031BD
S1130AA001F518C0602F70E0012E02C0759567959E
S1130AB00A94E2F78DE08C9FF0018D9FF00D1124D4
S1130AC0E855FF4FE10FF11D617085810E94000B15
S1130AD01F5F01C010E0183028F38F2D0E948E0490
S1130AE044C08823F1F041C0812F90E09C012C5F29
S1130AF03F4F602F70E002C0759567952A95E2F725
S1130B004DE04C9F90014D9F300D112428553F4FCF
S1130B10F901E80FF91F617085810E94000B1F5FC6
S1130B2001C010E0143000F38F2D0E948E0410E0F9
S1130B3017C0602F70E0012E02C0759567950A9466
S1130B40E2F78DE08C9FF0018D9FF00D1124E855A4
S1130B50FF4FE10FF11D617085810E94000B1F5F43
S1130B60143038F38F2D0E948E04DF91CF911F91A2
S1130B700F91FF90DF90CF900895643050F464603B
S1130B800E94A9048FEC97E00197F1F700C00000E0
S1130B9008959CEF960F943088F470E064507109C6
S1130BA0660F771F660F771F60610E94A9048FECA0
S1130BB097E00197F1F700C00000089598EF960FB1
S1130BC0963030F5E82FF0E0E052FE4F6081462F7A
S1130BD04860592F569561E070E0052E02C0660FFB
S1130BE0771F0A94E2F7292F217030E002C0220F08
S1130BF0331F5A95E2F760956423622B60830E9449
S1130C00A9048FEC97E00197F1F700C00000089564
S1130C10643151F461E00E94A9048FE99FE00197D7
S1130C20F1F700C000000895653149F462E00E94C4
S1130C30A9048FE99FE00197F1F700C0000008952F
S1130C400F931F93CF93DF93182F2FE788E391E03F
S1130C50215080409040E1F700C00000C12FD0E057
S1130C608DE08C9FF0018D9FF00D1124E855FF4F0E
S1130C70008101110AC062E0812F0E94A9048FEC57
S1130C8097E00197F1F700C000008DE08C9FF00120
S1130C908D9FF00D1124E855FF4F61818281602BF7
S1130CA0682B6062812F0E94A9048FEC97E0019762
S1130CB0F1F700C00000C052DE4F68816C606883A9
S1130CC0812F0E94A9048FEC97E00197F1F700C0EF
S1130CD0000061E0812F0E94A9048FE99FE0019741
S1130CE0F1F700C0000066E0812F0E94A9048FEC98
S1130CF097E00197F1F700C00000DF91CF911F91B9
S1130D000F9108950E9433058DE68A95F1F700004E
S1130D1008950F931F93CF93DF93D82F8B01C0E0D7
S1130D2004C08D2F0E948206CF5FF801EC0FF11DE5
S1130D3060816111F6CFDF91CF911F910F910895DA
S1130D40623091F018F4613031F008956330A9F005
S1130D506430E1F008956FE7640F0E94A9048DE602
S1130D608A95F1F7000008956FEB640F0E94A904BF
S1130D708DE68A95F1F70000089563E9640F0E94F7
S1130D80A9048DE68A95F1F70000089563ED640FD8
S1130D900E94A9048DE68A95F1F7000008958EEE6D
S1130DA095E89DBD8CBD8091E3019091E401892B70
S1130DB061F08091E3019091E40101979093E40143
S1130DC08093E30181E08093E2010895CF93DF9360
S1130DD0C82F853078F132C041E064E080E00E94A1
S1130DE0A00662EC70E080E00E9489062FEB87E2A7
S1130DF099E0215080409040E1F700C0000041E0BC
S1130E0064E080E00E94A006EC2FF0E0EE0FFF1FEC
S1130E10ED59FF4F6081718180E00E9489062FE7C0
S1130E208FE492E1215080409040E1F700C000003F
S1130E30DF5F01C0D0E0D23078F227C08BEF8C0F97
S1130E40833018F541E064E080E00E94A00662EC83
S1130E5070E080E00E94890641E064E080E00E9446
S1130E60A006EC2FF0E0EE0FFF1FED59FF4F60815D
S1130E70718180E00E9489062FEF84E39CE0215079
S1130E8080409040E1F700C00000DF91CF910895C9
S1130E9048E063E080E00E94A00662EC70E080E03D
S1130EA00E94890648E063E080E00E94A006609109
S1130EB0730080E00E9482066091740080E00E94CA
S1130EC082066AE380E00E9482066091750080E0F9
S1130ED00E9482066091760080E00E948206089556
S1130EE0CF93DF93853030F40E94E60681E080934F
S1130EF07700D9C09BEF980F933008F0D4C090913D
S1130F00E601913089F020F0923009F4C3C0CBC0DF
S1130F1090917700913009F0C6C0109277000E943A
S1130F20E6060E944807BFC090917700913021F4F3
S1130F30109277000E94E6068091E201813009F068
S1130F40B2C01092E201C091E301D091E4019E018C
S1130F50A9E8B8E80E94460BAC015695479552950E
S1130F6042954F7045275F704527ECE3E49FC0012D
S1130F70E59F900D1124AE01481B590B9A01ADEC6D
S1130F80BCEC0E94460B9695879596958795969509
S1130F9087959C01220F331F880F991F880F991F73
S1130FA0880F991F820F931F9A01281B390BC901BF
S1130FB0805D809376004091E3015091E4019A01B1
S1130FC0A9E8B8E80E94460B9C013695279532950E
S1130FD022952F7023273F702327E29FC001E39FB0
S1130FE0900D11249A01281B390BADECBCEC0E9426
S1130FF0460B969587959695879596958795805DEA
S1131000809375002091E3013091E401A9E8B8E8E8
S11310100E94460BAC0156954795529542954F70E8
S113102045275F7045279A01ADECBCEC0E94460B46
S11310309695879596958795969587959C01220F09
S1131040331F880F991F880F991F880F991F820FCC
S1131050931F9A01281B390BC901805D809374008A
S11310602091E3013091E401369527953695279533
S113107036952795AFE4BBE10E94460B969587957C
S11310809695879596958795805D809373000E94C9
S1131090480709C080917700813029F410927700C5
S11310A087E00E94E606DF91CF9108958130E9F44C
S11310B08091E501823011F081112CC081E0809390
S11310C0E50161E080E10E94000B61E081E10E94A2
S11310D0000B61E082E10E94000B61E081E00E946C
S11310E0210281E00E9457020895811113C060E03B
S11310F080E10E94000B60E081E10E94000B60E04F
S113110082E10E94000B60E081E00E94210280E005
S11311100E94570208950E94B90A80E00E942006A6
S11311208FEC96E00E94620224E040E060E080E000
S11311300E94050260E081E00E9421028EEE95E8A3
S11311409DBD8CBD789480E00E9457021092E60108
S11311501092E50181E08093770060E080E10E94D5
S1131160000B60E081E10E94000B60E082E10E94DC
S1131170000B64E180E00E94BD0541E061E080E095
S11311800E94A00667ED70E080E00E94890641E0BD
S113119062E080E00E94A0066CEE70E080E00E94B5
S11311A08906089581E00E94C90A811107C081E07F
S11311B00E94C90A8823D9F381E0089580E00E943F
S11311C0C90A811107C080E00E94C90A8823D9F3A3
S11311D080E0089588E0089583E00E94C90A81119F
S11311E002C084E0089585E00895809175008633F7
S11311F030F086E38093750080E3809376008091DD
S1131200730090E0C0979C01220F331F880F991F31
S1131210880F991F880F991F820F931F40917400A4
S113122050E040535109480F591F8091750090E0D8
S1131230C0979C01220F331F880F991F880F991F95
S1131240880F991F820F931F2091760030E020535E
S11312503109280F391F6CE3649FC001659F900D0D
S11312601124820F931F9093E4018093E3018091F2
S1131270E3019091E401892B11F086E0089587E061
S113128008958091E3019091E401892B11F083E0AA
S1131290089582E0089580E380937600809375003A
S11312A080937400809373001092E4011092E30120
S11312B0089588EE91E00E942A04811113C081E010
S11312C080937700809174008093730080917500FF
S11312D08093740080917600809375008091E8017A
S11312E08093760008950E948B080E94D208809310
S11312F0E7018091E6018130D1F120F0823009F4D8
S113130083C0F3CF0E94590985E00E947007809141
S1131310E701882319F0813011F1E7CF82E00E94C0
S1131320C90A813021F480E00E947007DECF0E9458
S1131330EC08853021F481E00E947007D6CF0E942A
S1131340F508873021F484E00E947007CECF81E055
S11313508093E601809377001092E501C6CF82E086
S11313600E9470070E944B091092E601BECF82E0F2
S11313700E94C90A813069F480E00E94560880E026
S11313800E94700782E08093E60181E080937700F9
S113139026C00E94EC08853069F480E00E9456085B
S11313A081E00E94700782E08093E60181E08093EF
S11313B0770015C00E944109823059F480E00E94F0
S11313C0560883E00E9470071092E6010E944B09C0
S11313D006C086E00E94700781E00E945608809152
S11313E0E701882319F0813029F07FCF81E08093D1
S11313F0E6017BCF80E00E94560882E08093E601FC
S113140081E08093770071CF87E00E94700780911C
S1131410E701882319F0813051F067CF81E0809390
S1131420E60192E09093E501809377005ECF82E03D
S11314300E9470070E944B091092E60156CFCF9389
S1131440DF93CDB7DEB760970FB6F894DEBF0FBE5B
S1131450CDBF98E0E8E7F0E0DE01119601900D922F
S11314609A95E1F798E0E0E8F0E0DE011996019042
S11314700D929A95E1F7613051F120F0623009F450
S11314804BC06EC0E82FE695E695E695F0E0EE0FCA
S1131490FF1F21E030E02C0F3D1FE20FF31FA0815E
S11314A0B1814C91877021E030E0B90102C0660F30
S11314B0771F8A95E2F7CB01942F982B9C93008495
S11314C0F185E02D908180958923808349C0E82FA0
S11314D0E695E695E695F0E0EE0FFF1F21E030E09B
S11314E02C0F3D1FE20FF31FA081B1814C91877037
S11314F021E030E0B90102C0660F771F8A95E2F758
S1131500CB018095942F98239C930084F185E02D42
S113151090818923808324C0E82FE695E695E6959B
S1131520F0E0EE0FFF1F21E030E02C0F3D1FE20F33
S1131530F31FA081B1814C91877021E030E0B901A3
S113154002C0660F771F8A95E2F7CB01962F90951C
S113155094239C930084F185E02D9081892B8083D2
S113156060960FB6F894DEBF0FBECDBFDF91CF916A
S11315700895CF93C0E009C0EC2FF0E0E755FE4F8B
S113158060818C2F0E941F0ACF5FC032A8F3CF91D5
S11315900895CF93DF93CDB7DEB728970FB6F894AD
S11315A0DEBF0FBECDBF98E0E8E8F0E0DE011196A3
S11315B001900D929A95E1F7E82FE695E695E69568
S11315C0F0E0EE0FFF1F21E030E02C0F3D1FE20F93
S11315D0F31F0190F081E02D9081282F2770892F2F
S11315E090E002C0959587952A95E2F78170289638
S11315F00FB6F894DEBF0FBECDBFDF91CF91089533
S1131600CF93DF93CDB7DEB728970FB6F894DEBF3C
S11316100FBECDBF98E0E0E8F0E0DE011196019046
S11316200D929A95E1F7E82FE695E695E695F0E0B8
S1131630EE0FFF1F21E030E02C0F3D1FE20FF31FE0
S11316400190F081E02D9081877021E030E0082E38
S113165002C0220F331F0A94E2F770E002C0660F43
S1131660771F8A95E2F720952923622B60832896B9
S11316700FB6F894DEBF0FBECDBFDF91CF910895B2
S1131680EE0FFF1F0590F491E02D0994A29FB00185
S1131690B39FC001A39F700D811D1124911DB29FA2
S11116A0700D811D1124911D0895F894FFCF43
S11316AE020202010116012B01400155016A017F5C
S11316BE01940130303030013A00370034003100EB
S11316CE3B0038003500320039003600330030005C
S11316DE18191A1B1C1D1E1F3738390034353600D5
S11316EE31323300003000000008000A0B141516C6
S11316FE1700000000000800080910111213000062
S113170E0000202020202020202020202020202007
S113171E2020202020200020202020204D696372CC
S113172E6F776176652020202020200020204162E2
S113173E64656C7261686D616E2041686D656420CC
S113174E003E3E3E3E446F6F72204F70656E656480
S113175E3C3C3C3C3C003E3E3E3E3E3E507574207E
S113176E466F6F643C3C3C3C3C3C003E3E3E3E3E41
S113177E3E3E52455345543C3C3C3C3C3C3C3C0078
S113178E3E3E3E3E3E3E3E3E444F4E453C3C3C3C41
S113179E3C3C3C3C003E54696D6572204E6F742097
S11317AE41646A75737465643C003E3E53657420EF
S11317BE54696D657220506C656173653C3C003EE6
S11317CE3E3E3E3E3E52554E4E494E473C3C3C3CC0
S11317DE3C3C3C003E3E3E3E3E3E3E504155534513
S11317EE443C3C3C3C3C3C3C0002020202020200F3
S11317FE00000000000200000000000000000000D5
S10D180E00000000000202020200C4
S9030000FC
